{
  "_format": "hh-sol-artifact-1",
  "contractName": "CommunityCoin",
  "sourceName": "contracts/MVP_Coin.sol",
  "abi": [
    {
      "inputs": [
        {
          "internalType": "string",
          "name": "name_",
          "type": "string"
        },
        {
          "internalType": "string",
          "name": "symbol_",
          "type": "string"
        }
      ],
      "stateMutability": "nonpayable",
      "type": "constructor"
    },
    {
      "anonymous": false,
      "inputs": [
        {
          "indexed": true,
          "internalType": "address",
          "name": "owner",
          "type": "address"
        },
        {
          "indexed": true,
          "internalType": "address",
          "name": "spender",
          "type": "address"
        },
        {
          "indexed": false,
          "internalType": "uint256",
          "name": "value",
          "type": "uint256"
        }
      ],
      "name": "Approval",
      "type": "event"
    },
    {
      "anonymous": false,
      "inputs": [
        {
          "indexed": true,
          "internalType": "address",
          "name": "_convertor",
          "type": "address"
        },
        {
          "indexed": true,
          "internalType": "address",
          "name": "_for",
          "type": "address"
        },
        {
          "indexed": false,
          "internalType": "uint256",
          "name": "_value",
          "type": "uint256"
        }
      ],
      "name": "Converted",
      "type": "event"
    },
    {
      "anonymous": false,
      "inputs": [
        {
          "indexed": true,
          "internalType": "bytes32",
          "name": "role",
          "type": "bytes32"
        },
        {
          "indexed": true,
          "internalType": "bytes32",
          "name": "previousAdminRole",
          "type": "bytes32"
        },
        {
          "indexed": true,
          "internalType": "bytes32",
          "name": "newAdminRole",
          "type": "bytes32"
        }
      ],
      "name": "RoleAdminChanged",
      "type": "event"
    },
    {
      "anonymous": false,
      "inputs": [
        {
          "indexed": true,
          "internalType": "bytes32",
          "name": "role",
          "type": "bytes32"
        },
        {
          "indexed": true,
          "internalType": "address",
          "name": "account",
          "type": "address"
        },
        {
          "indexed": true,
          "internalType": "address",
          "name": "sender",
          "type": "address"
        }
      ],
      "name": "RoleGranted",
      "type": "event"
    },
    {
      "anonymous": false,
      "inputs": [
        {
          "indexed": true,
          "internalType": "bytes32",
          "name": "role",
          "type": "bytes32"
        },
        {
          "indexed": true,
          "internalType": "address",
          "name": "account",
          "type": "address"
        },
        {
          "indexed": true,
          "internalType": "address",
          "name": "sender",
          "type": "address"
        }
      ],
      "name": "RoleRevoked",
      "type": "event"
    },
    {
      "anonymous": false,
      "inputs": [
        {
          "indexed": true,
          "internalType": "address",
          "name": "from",
          "type": "address"
        },
        {
          "indexed": true,
          "internalType": "address",
          "name": "to",
          "type": "address"
        },
        {
          "indexed": false,
          "internalType": "uint256",
          "name": "value",
          "type": "uint256"
        }
      ],
      "name": "Transfer",
      "type": "event"
    },
    {
      "anonymous": false,
      "inputs": [
        {
          "indexed": true,
          "internalType": "address",
          "name": "_transferer",
          "type": "address"
        },
        {
          "indexed": false,
          "internalType": "address",
          "name": "_to",
          "type": "address"
        }
      ],
      "name": "TransferredFunds",
      "type": "event"
    },
    {
      "inputs": [],
      "name": "CONVERTER_ROLE",
      "outputs": [
        {
          "internalType": "bytes32",
          "name": "",
          "type": "bytes32"
        }
      ],
      "stateMutability": "view",
      "type": "function"
    },
    {
      "inputs": [],
      "name": "DEFAULT_ADMIN_ROLE",
      "outputs": [
        {
          "internalType": "bytes32",
          "name": "",
          "type": "bytes32"
        }
      ],
      "stateMutability": "view",
      "type": "function"
    },
    {
      "inputs": [
        {
          "internalType": "address",
          "name": "owner",
          "type": "address"
        },
        {
          "internalType": "address",
          "name": "spender",
          "type": "address"
        }
      ],
      "name": "allowance",
      "outputs": [
        {
          "internalType": "uint256",
          "name": "",
          "type": "uint256"
        }
      ],
      "stateMutability": "view",
      "type": "function"
    },
    {
      "inputs": [
        {
          "internalType": "address",
          "name": "spender",
          "type": "address"
        },
        {
          "internalType": "uint256",
          "name": "amount",
          "type": "uint256"
        }
      ],
      "name": "approve",
      "outputs": [
        {
          "internalType": "bool",
          "name": "",
          "type": "bool"
        }
      ],
      "stateMutability": "nonpayable",
      "type": "function"
    },
    {
      "inputs": [
        {
          "internalType": "address",
          "name": "account",
          "type": "address"
        }
      ],
      "name": "balanceOf",
      "outputs": [
        {
          "internalType": "uint256",
          "name": "",
          "type": "uint256"
        }
      ],
      "stateMutability": "view",
      "type": "function"
    },
    {
      "inputs": [
        {
          "internalType": "address",
          "name": "cMember",
          "type": "address"
        }
      ],
      "name": "convertFor",
      "outputs": [
        {
          "internalType": "bool",
          "name": "",
          "type": "bool"
        }
      ],
      "stateMutability": "payable",
      "type": "function"
    },
    {
      "inputs": [],
      "name": "decimals",
      "outputs": [
        {
          "internalType": "uint8",
          "name": "",
          "type": "uint8"
        }
      ],
      "stateMutability": "view",
      "type": "function"
    },
    {
      "inputs": [
        {
          "internalType": "address",
          "name": "spender",
          "type": "address"
        },
        {
          "internalType": "uint256",
          "name": "subtractedValue",
          "type": "uint256"
        }
      ],
      "name": "decreaseAllowance",
      "outputs": [
        {
          "internalType": "bool",
          "name": "",
          "type": "bool"
        }
      ],
      "stateMutability": "nonpayable",
      "type": "function"
    },
    {
      "inputs": [
        {
          "internalType": "bytes32",
          "name": "role",
          "type": "bytes32"
        }
      ],
      "name": "getRoleAdmin",
      "outputs": [
        {
          "internalType": "bytes32",
          "name": "",
          "type": "bytes32"
        }
      ],
      "stateMutability": "view",
      "type": "function"
    },
    {
      "inputs": [
        {
          "internalType": "bytes32",
          "name": "role",
          "type": "bytes32"
        },
        {
          "internalType": "address",
          "name": "account",
          "type": "address"
        }
      ],
      "name": "grantRole",
      "outputs": [],
      "stateMutability": "nonpayable",
      "type": "function"
    },
    {
      "inputs": [
        {
          "internalType": "bytes32",
          "name": "role",
          "type": "bytes32"
        },
        {
          "internalType": "address",
          "name": "account",
          "type": "address"
        }
      ],
      "name": "hasRole",
      "outputs": [
        {
          "internalType": "bool",
          "name": "",
          "type": "bool"
        }
      ],
      "stateMutability": "view",
      "type": "function"
    },
    {
      "inputs": [
        {
          "internalType": "address",
          "name": "spender",
          "type": "address"
        },
        {
          "internalType": "uint256",
          "name": "addedValue",
          "type": "uint256"
        }
      ],
      "name": "increaseAllowance",
      "outputs": [
        {
          "internalType": "bool",
          "name": "",
          "type": "bool"
        }
      ],
      "stateMutability": "nonpayable",
      "type": "function"
    },
    {
      "inputs": [],
      "name": "name",
      "outputs": [
        {
          "internalType": "string",
          "name": "",
          "type": "string"
        }
      ],
      "stateMutability": "view",
      "type": "function"
    },
    {
      "inputs": [
        {
          "internalType": "bytes32",
          "name": "role",
          "type": "bytes32"
        },
        {
          "internalType": "address",
          "name": "account",
          "type": "address"
        }
      ],
      "name": "renounceRole",
      "outputs": [],
      "stateMutability": "nonpayable",
      "type": "function"
    },
    {
      "inputs": [
        {
          "internalType": "bytes32",
          "name": "role",
          "type": "bytes32"
        },
        {
          "internalType": "address",
          "name": "account",
          "type": "address"
        }
      ],
      "name": "revokeRole",
      "outputs": [],
      "stateMutability": "nonpayable",
      "type": "function"
    },
    {
      "inputs": [
        {
          "internalType": "bytes4",
          "name": "interfaceId",
          "type": "bytes4"
        }
      ],
      "name": "supportsInterface",
      "outputs": [
        {
          "internalType": "bool",
          "name": "",
          "type": "bool"
        }
      ],
      "stateMutability": "view",
      "type": "function"
    },
    {
      "inputs": [],
      "name": "symbol",
      "outputs": [
        {
          "internalType": "string",
          "name": "",
          "type": "string"
        }
      ],
      "stateMutability": "view",
      "type": "function"
    },
    {
      "inputs": [],
      "name": "totalSupply",
      "outputs": [
        {
          "internalType": "uint256",
          "name": "",
          "type": "uint256"
        }
      ],
      "stateMutability": "view",
      "type": "function"
    },
    {
      "inputs": [
        {
          "internalType": "address",
          "name": "to",
          "type": "address"
        },
        {
          "internalType": "uint256",
          "name": "amount",
          "type": "uint256"
        }
      ],
      "name": "transfer",
      "outputs": [
        {
          "internalType": "bool",
          "name": "",
          "type": "bool"
        }
      ],
      "stateMutability": "nonpayable",
      "type": "function"
    },
    {
      "inputs": [
        {
          "internalType": "address",
          "name": "from",
          "type": "address"
        },
        {
          "internalType": "address",
          "name": "to",
          "type": "address"
        },
        {
          "internalType": "uint256",
          "name": "amount",
          "type": "uint256"
        }
      ],
      "name": "transferFrom",
      "outputs": [
        {
          "internalType": "bool",
          "name": "",
          "type": "bool"
        }
      ],
      "stateMutability": "nonpayable",
      "type": "function"
    },
    {
      "inputs": [
        {
          "internalType": "address payable",
          "name": "to",
          "type": "address"
        }
      ],
      "name": "transferFundsTo",
      "outputs": [
        {
          "internalType": "bool",
          "name": "",
          "type": "bool"
        }
      ],
      "stateMutability": "nonpayable",
      "type": "function"
    }
  ],
  "bytecode": "0x60806040523480156200001157600080fd5b5060405162002bb338038062002bb3833981810160405281019062000037919062000311565b8181816003908051906020019062000051929190620001ef565b5080600490805190602001906200006a929190620001ef565b505050620000826000801b336200008a60201b60201c565b5050620004f4565b6200009c82826200017c60201b60201c565b620001785760016005600084815260200190815260200160002060000160008373ffffffffffffffffffffffffffffffffffffffff1673ffffffffffffffffffffffffffffffffffffffff16815260200190815260200160002060006101000a81548160ff0219169083151502179055506200011d620001e760201b60201c565b73ffffffffffffffffffffffffffffffffffffffff168173ffffffffffffffffffffffffffffffffffffffff16837f2f8788117e7eff1d82e926ec794901d17c78024a50270940304540a733656f0d60405160405180910390a45b5050565b60006005600084815260200190815260200160002060000160008373ffffffffffffffffffffffffffffffffffffffff1673ffffffffffffffffffffffffffffffffffffffff16815260200190815260200160002060009054906101000a900460ff16905092915050565b600033905090565b828054620001fd9062000419565b90600052602060002090601f0160209004810192826200022157600085556200026d565b82601f106200023c57805160ff19168380011785556200026d565b828001600101855582156200026d579182015b828111156200026c5782518255916020019190600101906200024f565b5b5090506200027c919062000280565b5090565b5b808211156200029b57600081600090555060010162000281565b5090565b6000620002b6620002b084620003ad565b62000384565b905082815260208101848484011115620002cf57600080fd5b620002dc848285620003e3565b509392505050565b600082601f830112620002f657600080fd5b8151620003088482602086016200029f565b91505092915050565b600080604083850312156200032557600080fd5b600083015167ffffffffffffffff8111156200034057600080fd5b6200034e85828601620002e4565b925050602083015167ffffffffffffffff8111156200036c57600080fd5b6200037a85828601620002e4565b9150509250929050565b600062000390620003a3565b90506200039e82826200044f565b919050565b6000604051905090565b600067ffffffffffffffff821115620003cb57620003ca620004b4565b5b620003d682620004e3565b9050602081019050919050565b60005b8381101562000403578082015181840152602081019050620003e6565b8381111562000413576000848401525b50505050565b600060028204905060018216806200043257607f821691505b6020821081141562000449576200044862000485565b5b50919050565b6200045a82620004e3565b810181811067ffffffffffffffff821117156200047c576200047b620004b4565b5b80604052505050565b7f4e487b7100000000000000000000000000000000000000000000000000000000600052602260045260246000fd5b7f4e487b7100000000000000000000000000000000000000000000000000000000600052604160045260246000fd5b6000601f19601f8301169050919050565b6126af80620005046000396000f3fe60806040526004361061012a5760003560e01c806339509351116100ab578063a217fddf1161006f578063a217fddf14610440578063a457c2d71461046b578063a9059cbb146104a8578063c02c36c2146104e5578063d547741f14610515578063dd62ed3e1461053e5761012a565b8063395093511461032157806370a082311461035e5780638564632c1461039b57806391d14854146103d857806395d89b41146104155761012a565b806323b872dd116100f257806323b872dd1461022a578063248a9ca3146102675780632f2ff15d146102a4578063313ce567146102cd57806336568abe146102f85761012a565b806301ffc9a71461012f57806306fdde031461016c578063095ea7b31461019757806313776a8d146101d457806318160ddd146101ff575b600080fd5b34801561013b57600080fd5b5061015660048036038101906101519190611b31565b61057b565b6040516101639190611e2b565b60405180910390f35b34801561017857600080fd5b506101816105f5565b60405161018e9190611e61565b60405180910390f35b3480156101a357600080fd5b506101be60048036038101906101b99190611a90565b610687565b6040516101cb9190611e2b565b60405180910390f35b3480156101e057600080fd5b506101e96106aa565b6040516101f69190611e46565b60405180910390f35b34801561020b57600080fd5b506102146106ce565b6040516102219190611fe3565b60405180910390f35b34801561023657600080fd5b50610251600480360381019061024c9190611a41565b6106d8565b60405161025e9190611e2b565b60405180910390f35b34801561027357600080fd5b5061028e60048036038101906102899190611acc565b610707565b60405161029b9190611e46565b60405180910390f35b3480156102b057600080fd5b506102cb60048036038101906102c69190611af5565b610727565b005b3480156102d957600080fd5b506102e2610750565b6040516102ef9190611ffe565b60405180910390f35b34801561030457600080fd5b5061031f600480360381019061031a9190611af5565b610759565b005b34801561032d57600080fd5b5061034860048036038101906103439190611a90565b6107dc565b6040516103559190611e2b565b60405180910390f35b34801561036a57600080fd5b50610385600480360381019061038091906119b3565b610886565b6040516103929190611fe3565b60405180910390f35b3480156103a757600080fd5b506103c260048036038101906103bd91906119dc565b6108ce565b6040516103cf9190611e2b565b60405180910390f35b3480156103e457600080fd5b506103ff60048036038101906103fa9190611af5565b610984565b60405161040c9190611e2b565b60405180910390f35b34801561042157600080fd5b5061042a6109ef565b6040516104379190611e61565b60405180910390f35b34801561044c57600080fd5b50610455610a81565b6040516104629190611e46565b60405180910390f35b34801561047757600080fd5b50610492600480360381019061048d9190611a90565b610a88565b60405161049f9190611e2b565b60405180910390f35b3480156104b457600080fd5b506104cf60048036038101906104ca9190611a90565b610b72565b6040516104dc9190611e2b565b60405180910390f35b6104ff60048036038101906104fa91906119b3565b610b95565b60405161050c9190611e2b565b60405180910390f35b34801561052157600080fd5b5061053c60048036038101906105379190611af5565b610c8c565b005b34801561054a57600080fd5b5061056560048036038101906105609190611a05565b610cb5565b6040516105729190611fe3565b60405180910390f35b60007f7965db0b000000000000000000000000000000000000000000000000000000007bffffffffffffffffffffffffffffffffffffffffffffffffffffffff1916827bffffffffffffffffffffffffffffffffffffffffffffffffffffffff191614806105ee57506105ed82610d3c565b5b9050919050565b60606003805461060490612220565b80601f016020809104026020016040519081016040528092919081815260200182805461063090612220565b801561067d5780601f106106525761010080835404028352916020019161067d565b820191906000526020600020905b81548152906001019060200180831161066057829003601f168201915b5050505050905090565b600080610692610da6565b905061069f818585610dae565b600191505092915050565b7f1cf336fddcc7dc48127faf7a5b80ee54fce73ef647eecd31c24bb6cce3ac3eef81565b6000600254905090565b6000806106e3610da6565b90506106f0858285610f79565b6106fb858585611005565b60019150509392505050565b600060056000838152602001908152602001600020600101549050919050565b61073082610707565b6107418161073c610da6565b611286565b61074b8383611323565b505050565b60006012905090565b610761610da6565b73ffffffffffffffffffffffffffffffffffffffff168173ffffffffffffffffffffffffffffffffffffffff16146107ce576040517f08c379a00000000000000000000000000000000000000000000000000000000081526004016107c590611fa3565b60405180910390fd5b6107d88282611404565b5050565b6000806107e7610da6565b905061087b818585600160008673ffffffffffffffffffffffffffffffffffffffff1673ffffffffffffffffffffffffffffffffffffffff16815260200190815260200160002060008973ffffffffffffffffffffffffffffffffffffffff1673ffffffffffffffffffffffffffffffffffffffff168152602001908152602001600020546108769190612040565b610dae565b600191505092915050565b60008060008373ffffffffffffffffffffffffffffffffffffffff1673ffffffffffffffffffffffffffffffffffffffff168152602001908152602001600020549050919050565b60008060001b6108e5816108e0610da6565b611286565b8273ffffffffffffffffffffffffffffffffffffffff166108fc479081150290604051600060405180830381858888f1935050505015801561092b573d6000803e3d6000fd5b503373ffffffffffffffffffffffffffffffffffffffff167f917fcc5f61a63a42d2f755e09ee076e863e163e9641250054b98649e353705ac846040516109729190611e10565b60405180910390a26001915050919050565b60006005600084815260200190815260200160002060000160008373ffffffffffffffffffffffffffffffffffffffff1673ffffffffffffffffffffffffffffffffffffffff16815260200190815260200160002060009054906101000a900460ff16905092915050565b6060600480546109fe90612220565b80601f0160208091040260200160405190810160405280929190818152602001828054610a2a90612220565b8015610a775780601f10610a4c57610100808354040283529160200191610a77565b820191906000526020600020905b815481529060010190602001808311610a5a57829003601f168201915b5050505050905090565b6000801b81565b600080610a93610da6565b90506000600160008373ffffffffffffffffffffffffffffffffffffffff1673ffffffffffffffffffffffffffffffffffffffff16815260200190815260200160002060008673ffffffffffffffffffffffffffffffffffffffff1673ffffffffffffffffffffffffffffffffffffffff16815260200190815260200160002054905083811015610b59576040517f08c379a0000000000000000000000000000000000000000000000000000000008152600401610b5090611f83565b60405180910390fd5b610b668286868403610dae565b60019250505092915050565b600080610b7d610da6565b9050610b8a818585611005565b600191505092915050565b60007f1cf336fddcc7dc48127faf7a5b80ee54fce73ef647eecd31c24bb6cce3ac3eef610bc981610bc4610da6565b611286565b670de0b6b3a76400003411610c13576040517f08c379a0000000000000000000000000000000000000000000000000000000008152600401610c0a90611ee3565b60405180910390fd5b610c1d83346114e6565b8273ffffffffffffffffffffffffffffffffffffffff163373ffffffffffffffffffffffffffffffffffffffff167f906a93b9c694feed29962dd45c9b10da5a1f52440a51de2f55ef70d0710c264234604051610c7a9190611fe3565b60405180910390a36001915050919050565b610c9582610707565b610ca681610ca1610da6565b611286565b610cb08383611404565b505050565b6000600160008473ffffffffffffffffffffffffffffffffffffffff1673ffffffffffffffffffffffffffffffffffffffff16815260200190815260200160002060008373ffffffffffffffffffffffffffffffffffffffff1673ffffffffffffffffffffffffffffffffffffffff16815260200190815260200160002054905092915050565b60007f01ffc9a7000000000000000000000000000000000000000000000000000000007bffffffffffffffffffffffffffffffffffffffffffffffffffffffff1916827bffffffffffffffffffffffffffffffffffffffffffffffffffffffff1916149050919050565b600033905090565b600073ffffffffffffffffffffffffffffffffffffffff168373ffffffffffffffffffffffffffffffffffffffff161415610e1e576040517f08c379a0000000000000000000000000000000000000000000000000000000008152600401610e1590611f63565b60405180910390fd5b600073ffffffffffffffffffffffffffffffffffffffff168273ffffffffffffffffffffffffffffffffffffffff161415610e8e576040517f08c379a0000000000000000000000000000000000000000000000000000000008152600401610e8590611ec3565b60405180910390fd5b80600160008573ffffffffffffffffffffffffffffffffffffffff1673ffffffffffffffffffffffffffffffffffffffff16815260200190815260200160002060008473ffffffffffffffffffffffffffffffffffffffff1673ffffffffffffffffffffffffffffffffffffffff168152602001908152602001600020819055508173ffffffffffffffffffffffffffffffffffffffff168373ffffffffffffffffffffffffffffffffffffffff167f8c5be1e5ebec7d5bd14f71427d1e84f3dd0314c0f7b2291e5b200ac8c7c3b92583604051610f6c9190611fe3565b60405180910390a3505050565b6000610f858484610cb5565b90507fffffffffffffffffffffffffffffffffffffffffffffffffffffffffffffffff8114610fff5781811015610ff1576040517f08c379a0000000000000000000000000000000000000000000000000000000008152600401610fe890611f03565b60405180910390fd5b610ffe8484848403610dae565b5b50505050565b600073ffffffffffffffffffffffffffffffffffffffff168373ffffffffffffffffffffffffffffffffffffffff161415611075576040517f08c379a000000000000000000000000000000000000000000000000000000000815260040161106c90611f43565b60405180910390fd5b600073ffffffffffffffffffffffffffffffffffffffff168273ffffffffffffffffffffffffffffffffffffffff1614156110e5576040517f08c379a00000000000000000000000000000000000000000000000000000000081526004016110dc90611ea3565b60405180910390fd5b6110f0838383611646565b60008060008573ffffffffffffffffffffffffffffffffffffffff1673ffffffffffffffffffffffffffffffffffffffff16815260200190815260200160002054905081811015611176576040517f08c379a000000000000000000000000000000000000000000000000000000000815260040161116d90611f23565b60405180910390fd5b8181036000808673ffffffffffffffffffffffffffffffffffffffff1673ffffffffffffffffffffffffffffffffffffffff16815260200190815260200160002081905550816000808573ffffffffffffffffffffffffffffffffffffffff1673ffffffffffffffffffffffffffffffffffffffff16815260200190815260200160002060008282546112099190612040565b925050819055508273ffffffffffffffffffffffffffffffffffffffff168473ffffffffffffffffffffffffffffffffffffffff167fddf252ad1be2c89b69c2b068fc378daa952ba7f163c4a11628f55a4df523b3ef8460405161126d9190611fe3565b60405180910390a361128084848461164b565b50505050565b6112908282610984565b61131f576112b58173ffffffffffffffffffffffffffffffffffffffff166014611650565b6112c38360001c6020611650565b6040516020016112d4929190611dd6565b6040516020818303038152906040526040517f08c379a00000000000000000000000000000000000000000000000000000000081526004016113169190611e61565b60405180910390fd5b5050565b61132d8282610984565b6114005760016005600084815260200190815260200160002060000160008373ffffffffffffffffffffffffffffffffffffffff1673ffffffffffffffffffffffffffffffffffffffff16815260200190815260200160002060006101000a81548160ff0219169083151502179055506113a5610da6565b73ffffffffffffffffffffffffffffffffffffffff168173ffffffffffffffffffffffffffffffffffffffff16837f2f8788117e7eff1d82e926ec794901d17c78024a50270940304540a733656f0d60405160405180910390a45b5050565b61140e8282610984565b156114e25760006005600084815260200190815260200160002060000160008373ffffffffffffffffffffffffffffffffffffffff1673ffffffffffffffffffffffffffffffffffffffff16815260200190815260200160002060006101000a81548160ff021916908315150217905550611487610da6565b73ffffffffffffffffffffffffffffffffffffffff168173ffffffffffffffffffffffffffffffffffffffff16837ff6391f5c32d9c69d2a47ea670b442974b53935d1edc7fd64eb21e047a839171b60405160405180910390a45b5050565b600073ffffffffffffffffffffffffffffffffffffffff168273ffffffffffffffffffffffffffffffffffffffff161415611556576040517f08c379a000000000000000000000000000000000000000000000000000000000815260040161154d90611fc3565b60405180910390fd5b61156260008383611646565b80600260008282546115749190612040565b92505081905550806000808473ffffffffffffffffffffffffffffffffffffffff1673ffffffffffffffffffffffffffffffffffffffff16815260200190815260200160002060008282546115c99190612040565b925050819055508173ffffffffffffffffffffffffffffffffffffffff16600073ffffffffffffffffffffffffffffffffffffffff167fddf252ad1be2c89b69c2b068fc378daa952ba7f163c4a11628f55a4df523b3ef8360405161162e9190611fe3565b60405180910390a36116426000838361164b565b5050565b505050565b505050565b6060600060028360026116639190612096565b61166d9190612040565b67ffffffffffffffff8111156116ac577f4e487b7100000000000000000000000000000000000000000000000000000000600052604160045260246000fd5b6040519080825280601f01601f1916602001820160405280156116de5781602001600182028036833780820191505090505b5090507f30000000000000000000000000000000000000000000000000000000000000008160008151811061173c577f4e487b7100000000000000000000000000000000000000000000000000000000600052603260045260246000fd5b60200101907effffffffffffffffffffffffffffffffffffffffffffffffffffffffffffff1916908160001a9053507f7800000000000000000000000000000000000000000000000000000000000000816001815181106117c6577f4e487b7100000000000000000000000000000000000000000000000000000000600052603260045260246000fd5b60200101907effffffffffffffffffffffffffffffffffffffffffffffffffffffffffffff1916908160001a905350600060018460026118069190612096565b6118109190612040565b90505b60018111156118fc577f3031323334353637383961626364656600000000000000000000000000000000600f861660108110611878577f4e487b7100000000000000000000000000000000000000000000000000000000600052603260045260246000fd5b1a60f81b8282815181106118b5577f4e487b7100000000000000000000000000000000000000000000000000000000600052603260045260246000fd5b60200101907effffffffffffffffffffffffffffffffffffffffffffffffffffffffffffff1916908160001a905350600485901c9450806118f5906121f6565b9050611813565b5060008414611940576040517f08c379a000000000000000000000000000000000000000000000000000000000815260040161193790611e83565b60405180910390fd5b8091505092915050565b60008135905061195981612606565b92915050565b60008135905061196e8161261d565b92915050565b60008135905061198381612634565b92915050565b6000813590506119988161264b565b92915050565b6000813590506119ad81612662565b92915050565b6000602082840312156119c557600080fd5b60006119d38482850161194a565b91505092915050565b6000602082840312156119ee57600080fd5b60006119fc8482850161195f565b91505092915050565b60008060408385031215611a1857600080fd5b6000611a268582860161194a565b9250506020611a378582860161194a565b9150509250929050565b600080600060608486031215611a5657600080fd5b6000611a648682870161194a565b9350506020611a758682870161194a565b9250506040611a868682870161199e565b9150509250925092565b60008060408385031215611aa357600080fd5b6000611ab18582860161194a565b9250506020611ac28582860161199e565b9150509250929050565b600060208284031215611ade57600080fd5b6000611aec84828501611974565b91505092915050565b60008060408385031215611b0857600080fd5b6000611b1685828601611974565b9250506020611b278582860161194a565b9150509250929050565b600060208284031215611b4357600080fd5b6000611b5184828501611989565b91505092915050565b611b638161218d565b82525050565b611b7281612114565b82525050565b611b8181612120565b82525050565b6000611b9282612019565b611b9c8185612024565b9350611bac8185602086016121c3565b611bb5816122b0565b840191505092915050565b6000611bcb82612019565b611bd58185612035565b9350611be58185602086016121c3565b80840191505092915050565b6000611bfe602083612024565b9150611c09826122c1565b602082019050919050565b6000611c21602383612024565b9150611c2c826122ea565b604082019050919050565b6000611c44602283612024565b9150611c4f82612339565b604082019050919050565b6000611c67603083612024565b9150611c7282612388565b604082019050919050565b6000611c8a601d83612024565b9150611c95826123d7565b602082019050919050565b6000611cad602683612024565b9150611cb882612400565b604082019050919050565b6000611cd0602583612024565b9150611cdb8261244f565b604082019050919050565b6000611cf3602483612024565b9150611cfe8261249e565b604082019050919050565b6000611d16601783612035565b9150611d21826124ed565b601782019050919050565b6000611d39602583612024565b9150611d4482612516565b604082019050919050565b6000611d5c601183612035565b9150611d6782612565565b601182019050919050565b6000611d7f602f83612024565b9150611d8a8261258e565b604082019050919050565b6000611da2601f83612024565b9150611dad826125dd565b602082019050919050565b611dc181612176565b82525050565b611dd081612180565b82525050565b6000611de182611d09565b9150611ded8285611bc0565b9150611df882611d4f565b9150611e048284611bc0565b91508190509392505050565b6000602082019050611e256000830184611b5a565b92915050565b6000602082019050611e406000830184611b69565b92915050565b6000602082019050611e5b6000830184611b78565b92915050565b60006020820190508181036000830152611e7b8184611b87565b905092915050565b60006020820190508181036000830152611e9c81611bf1565b9050919050565b60006020820190508181036000830152611ebc81611c14565b9050919050565b60006020820190508181036000830152611edc81611c37565b9050919050565b60006020820190508181036000830152611efc81611c5a565b9050919050565b60006020820190508181036000830152611f1c81611c7d565b9050919050565b60006020820190508181036000830152611f3c81611ca0565b9050919050565b60006020820190508181036000830152611f5c81611cc3565b9050919050565b60006020820190508181036000830152611f7c81611ce6565b9050919050565b60006020820190508181036000830152611f9c81611d2c565b9050919050565b60006020820190508181036000830152611fbc81611d72565b9050919050565b60006020820190508181036000830152611fdc81611d95565b9050919050565b6000602082019050611ff86000830184611db8565b92915050565b60006020820190506120136000830184611dc7565b92915050565b600081519050919050565b600082825260208201905092915050565b600081905092915050565b600061204b82612176565b915061205683612176565b9250827fffffffffffffffffffffffffffffffffffffffffffffffffffffffffffffffff0382111561208b5761208a612252565b5b828201905092915050565b60006120a182612176565b91506120ac83612176565b9250817fffffffffffffffffffffffffffffffffffffffffffffffffffffffffffffffff04831182151516156120e5576120e4612252565b5b828202905092915050565b60006120fb82612156565b9050919050565b600061210d82612156565b9050919050565b60008115159050919050565b6000819050919050565b60007fffffffff0000000000000000000000000000000000000000000000000000000082169050919050565b600073ffffffffffffffffffffffffffffffffffffffff82169050919050565b6000819050919050565b600060ff82169050919050565b60006121988261219f565b9050919050565b60006121aa826121b1565b9050919050565b60006121bc82612156565b9050919050565b60005b838110156121e15780820151818401526020810190506121c6565b838111156121f0576000848401525b50505050565b600061220182612176565b9150600082141561221557612214612252565b5b600182039050919050565b6000600282049050600182168061223857607f821691505b6020821081141561224c5761224b612281565b5b50919050565b7f4e487b7100000000000000000000000000000000000000000000000000000000600052601160045260246000fd5b7f4e487b7100000000000000000000000000000000000000000000000000000000600052602260045260246000fd5b6000601f19601f8301169050919050565b7f537472696e67733a20686578206c656e67746820696e73756666696369656e74600082015250565b7f45524332303a207472616e7366657220746f20746865207a65726f206164647260008201527f6573730000000000000000000000000000000000000000000000000000000000602082015250565b7f45524332303a20617070726f766520746f20746865207a65726f20616464726560008201527f7373000000000000000000000000000000000000000000000000000000000000602082015250565b7f56616c75652073686f756c64206265206f76657220616e20657468657220286460008201527f65616c696e6720696e20434f4d53292e00000000000000000000000000000000602082015250565b7f45524332303a20696e73756666696369656e7420616c6c6f77616e6365000000600082015250565b7f45524332303a207472616e7366657220616d6f756e742065786365656473206260008201527f616c616e63650000000000000000000000000000000000000000000000000000602082015250565b7f45524332303a207472616e736665722066726f6d20746865207a65726f20616460008201527f6472657373000000000000000000000000000000000000000000000000000000602082015250565b7f45524332303a20617070726f76652066726f6d20746865207a65726f2061646460008201527f7265737300000000000000000000000000000000000000000000000000000000602082015250565b7f416363657373436f6e74726f6c3a206163636f756e7420000000000000000000600082015250565b7f45524332303a2064656372656173656420616c6c6f77616e63652062656c6f7760008201527f207a65726f000000000000000000000000000000000000000000000000000000602082015250565b7f206973206d697373696e6720726f6c6520000000000000000000000000000000600082015250565b7f416363657373436f6e74726f6c3a2063616e206f6e6c792072656e6f756e636560008201527f20726f6c657320666f722073656c660000000000000000000000000000000000602082015250565b7f45524332303a206d696e7420746f20746865207a65726f206164647265737300600082015250565b61260f816120f0565b811461261a57600080fd5b50565b61262681612102565b811461263157600080fd5b50565b61263d81612120565b811461264857600080fd5b50565b6126548161212a565b811461265f57600080fd5b50565b61266b81612176565b811461267657600080fd5b5056fea264697066735822122007a98a93796b6113b7c50ee6d92663bfe31591cd79b008ef72b49dc5857e7db464736f6c63430008010033",
  "linkReferences": {},
  "deployedLinkReferences": {}
}