{
  "_format": "hh-sol-artifact-1",
  "contractName": "CommunityCoin",
  "sourceName": "contracts/MVP_Coin.sol",
  "abi": [
    {
      "inputs": [
        {
          "internalType": "string",
          "name": "name_",
          "type": "string"
        },
        {
          "internalType": "string",
          "name": "symbol_",
          "type": "string"
        }
      ],
      "stateMutability": "nonpayable",
      "type": "constructor"
    },
    {
      "anonymous": false,
      "inputs": [
        {
          "indexed": true,
          "internalType": "address",
          "name": "owner",
          "type": "address"
        },
        {
          "indexed": true,
          "internalType": "address",
          "name": "spender",
          "type": "address"
        },
        {
          "indexed": false,
          "internalType": "uint256",
          "name": "value",
          "type": "uint256"
        }
      ],
      "name": "Approval",
      "type": "event"
    },
    {
      "anonymous": false,
      "inputs": [
        {
          "indexed": true,
          "internalType": "address",
          "name": "_convertor",
          "type": "address"
        },
        {
          "indexed": true,
          "internalType": "address",
          "name": "_for",
          "type": "address"
        },
        {
          "indexed": false,
          "internalType": "uint256",
          "name": "_value",
          "type": "uint256"
        }
      ],
      "name": "Converted",
      "type": "event"
    },
    {
      "anonymous": false,
      "inputs": [
        {
          "indexed": true,
          "internalType": "bytes32",
          "name": "role",
          "type": "bytes32"
        },
        {
          "indexed": true,
          "internalType": "bytes32",
          "name": "previousAdminRole",
          "type": "bytes32"
        },
        {
          "indexed": true,
          "internalType": "bytes32",
          "name": "newAdminRole",
          "type": "bytes32"
        }
      ],
      "name": "RoleAdminChanged",
      "type": "event"
    },
    {
      "anonymous": false,
      "inputs": [
        {
          "indexed": true,
          "internalType": "bytes32",
          "name": "role",
          "type": "bytes32"
        },
        {
          "indexed": true,
          "internalType": "address",
          "name": "account",
          "type": "address"
        },
        {
          "indexed": true,
          "internalType": "address",
          "name": "sender",
          "type": "address"
        }
      ],
      "name": "RoleGranted",
      "type": "event"
    },
    {
      "anonymous": false,
      "inputs": [
        {
          "indexed": true,
          "internalType": "bytes32",
          "name": "role",
          "type": "bytes32"
        },
        {
          "indexed": true,
          "internalType": "address",
          "name": "account",
          "type": "address"
        },
        {
          "indexed": true,
          "internalType": "address",
          "name": "sender",
          "type": "address"
        }
      ],
      "name": "RoleRevoked",
      "type": "event"
    },
    {
      "anonymous": false,
      "inputs": [
        {
          "indexed": true,
          "internalType": "address",
          "name": "from",
          "type": "address"
        },
        {
          "indexed": true,
          "internalType": "address",
          "name": "to",
          "type": "address"
        },
        {
          "indexed": false,
          "internalType": "uint256",
          "name": "value",
          "type": "uint256"
        }
      ],
      "name": "Transfer",
      "type": "event"
    },
    {
      "anonymous": false,
      "inputs": [
        {
          "indexed": true,
          "internalType": "address",
          "name": "_transferer",
          "type": "address"
        },
        {
          "indexed": false,
          "internalType": "address",
          "name": "_to",
          "type": "address"
        }
      ],
      "name": "TransferredFunds",
      "type": "event"
    },
    {
      "inputs": [],
      "name": "CONVERTER_ROLE",
      "outputs": [
        {
          "internalType": "bytes32",
          "name": "",
          "type": "bytes32"
        }
      ],
      "stateMutability": "view",
      "type": "function"
    },
    {
      "inputs": [],
      "name": "DEFAULT_ADMIN_ROLE",
      "outputs": [
        {
          "internalType": "bytes32",
          "name": "",
          "type": "bytes32"
        }
      ],
      "stateMutability": "view",
      "type": "function"
    },
    {
      "inputs": [
        {
          "internalType": "address",
          "name": "owner",
          "type": "address"
        },
        {
          "internalType": "address",
          "name": "spender",
          "type": "address"
        }
      ],
      "name": "allowance",
      "outputs": [
        {
          "internalType": "uint256",
          "name": "",
          "type": "uint256"
        }
      ],
      "stateMutability": "view",
      "type": "function"
    },
    {
      "inputs": [
        {
          "internalType": "address",
          "name": "spender",
          "type": "address"
        },
        {
          "internalType": "uint256",
          "name": "amount",
          "type": "uint256"
        }
      ],
      "name": "approve",
      "outputs": [
        {
          "internalType": "bool",
          "name": "",
          "type": "bool"
        }
      ],
      "stateMutability": "nonpayable",
      "type": "function"
    },
    {
      "inputs": [
        {
          "internalType": "address",
          "name": "account",
          "type": "address"
        }
      ],
      "name": "balanceOf",
      "outputs": [
        {
          "internalType": "uint256",
          "name": "",
          "type": "uint256"
        }
      ],
      "stateMutability": "view",
      "type": "function"
    },
    {
      "inputs": [
        {
          "internalType": "address",
          "name": "cMember",
          "type": "address"
        }
      ],
      "name": "convertFor",
      "outputs": [
        {
          "internalType": "bool",
          "name": "",
          "type": "bool"
        }
      ],
      "stateMutability": "payable",
      "type": "function"
    },
    {
      "inputs": [],
      "name": "decimals",
      "outputs": [
        {
          "internalType": "uint8",
          "name": "",
          "type": "uint8"
        }
      ],
      "stateMutability": "view",
      "type": "function"
    },
    {
      "inputs": [
        {
          "internalType": "address",
          "name": "spender",
          "type": "address"
        },
        {
          "internalType": "uint256",
          "name": "subtractedValue",
          "type": "uint256"
        }
      ],
      "name": "decreaseAllowance",
      "outputs": [
        {
          "internalType": "bool",
          "name": "",
          "type": "bool"
        }
      ],
      "stateMutability": "nonpayable",
      "type": "function"
    },
    {
      "inputs": [
        {
          "internalType": "bytes32",
          "name": "role",
          "type": "bytes32"
        }
      ],
      "name": "getRoleAdmin",
      "outputs": [
        {
          "internalType": "bytes32",
          "name": "",
          "type": "bytes32"
        }
      ],
      "stateMutability": "view",
      "type": "function"
    },
    {
      "inputs": [
        {
          "internalType": "bytes32",
          "name": "role",
          "type": "bytes32"
        },
        {
          "internalType": "address",
          "name": "account",
          "type": "address"
        }
      ],
      "name": "grantRole",
      "outputs": [],
      "stateMutability": "nonpayable",
      "type": "function"
    },
    {
      "inputs": [
        {
          "internalType": "bytes32",
          "name": "role",
          "type": "bytes32"
        },
        {
          "internalType": "address",
          "name": "account",
          "type": "address"
        }
      ],
      "name": "hasRole",
      "outputs": [
        {
          "internalType": "bool",
          "name": "",
          "type": "bool"
        }
      ],
      "stateMutability": "view",
      "type": "function"
    },
    {
      "inputs": [
        {
          "internalType": "address",
          "name": "spender",
          "type": "address"
        },
        {
          "internalType": "uint256",
          "name": "addedValue",
          "type": "uint256"
        }
      ],
      "name": "increaseAllowance",
      "outputs": [
        {
          "internalType": "bool",
          "name": "",
          "type": "bool"
        }
      ],
      "stateMutability": "nonpayable",
      "type": "function"
    },
    {
      "inputs": [],
      "name": "name",
      "outputs": [
        {
          "internalType": "string",
          "name": "",
          "type": "string"
        }
      ],
      "stateMutability": "view",
      "type": "function"
    },
    {
      "inputs": [
        {
          "internalType": "bytes32",
          "name": "role",
          "type": "bytes32"
        },
        {
          "internalType": "address",
          "name": "account",
          "type": "address"
        }
      ],
      "name": "renounceRole",
      "outputs": [],
      "stateMutability": "nonpayable",
      "type": "function"
    },
    {
      "inputs": [
        {
          "internalType": "bytes32",
          "name": "role",
          "type": "bytes32"
        },
        {
          "internalType": "address",
          "name": "account",
          "type": "address"
        }
      ],
      "name": "revokeRole",
      "outputs": [],
      "stateMutability": "nonpayable",
      "type": "function"
    },
    {
      "inputs": [
        {
          "internalType": "bytes4",
          "name": "interfaceId",
          "type": "bytes4"
        }
      ],
      "name": "supportsInterface",
      "outputs": [
        {
          "internalType": "bool",
          "name": "",
          "type": "bool"
        }
      ],
      "stateMutability": "view",
      "type": "function"
    },
    {
      "inputs": [],
      "name": "symbol",
      "outputs": [
        {
          "internalType": "string",
          "name": "",
          "type": "string"
        }
      ],
      "stateMutability": "view",
      "type": "function"
    },
    {
      "inputs": [],
      "name": "totalSupply",
      "outputs": [
        {
          "internalType": "uint256",
          "name": "",
          "type": "uint256"
        }
      ],
      "stateMutability": "view",
      "type": "function"
    },
    {
      "inputs": [
        {
          "internalType": "address",
          "name": "to",
          "type": "address"
        },
        {
          "internalType": "uint256",
          "name": "amount",
          "type": "uint256"
        }
      ],
      "name": "transfer",
      "outputs": [
        {
          "internalType": "bool",
          "name": "",
          "type": "bool"
        }
      ],
      "stateMutability": "nonpayable",
      "type": "function"
    },
    {
      "inputs": [
        {
          "internalType": "address",
          "name": "from",
          "type": "address"
        },
        {
          "internalType": "address",
          "name": "to",
          "type": "address"
        },
        {
          "internalType": "uint256",
          "name": "amount",
          "type": "uint256"
        }
      ],
      "name": "transferFrom",
      "outputs": [
        {
          "internalType": "bool",
          "name": "",
          "type": "bool"
        }
      ],
      "stateMutability": "nonpayable",
      "type": "function"
    },
    {
      "inputs": [
        {
          "internalType": "address payable",
          "name": "to",
          "type": "address"
        }
      ],
      "name": "transferFundsTo",
      "outputs": [
        {
          "internalType": "bool",
          "name": "",
          "type": "bool"
        }
      ],
      "stateMutability": "nonpayable",
      "type": "function"
    }
  ],
  "bytecode": "0x60806040523480156200001157600080fd5b5060405162002ce738038062002ce7833981810160405281019062000037919062000311565b8181816003908051906020019062000051929190620001ef565b5080600490805190602001906200006a929190620001ef565b505050620000826000801b336200008a60201b60201c565b5050620004f4565b6200009c82826200017c60201b60201c565b620001785760016005600084815260200190815260200160002060000160008373ffffffffffffffffffffffffffffffffffffffff1673ffffffffffffffffffffffffffffffffffffffff16815260200190815260200160002060006101000a81548160ff0219169083151502179055506200011d620001e760201b60201c565b73ffffffffffffffffffffffffffffffffffffffff168173ffffffffffffffffffffffffffffffffffffffff16837f2f8788117e7eff1d82e926ec794901d17c78024a50270940304540a733656f0d60405160405180910390a45b5050565b60006005600084815260200190815260200160002060000160008373ffffffffffffffffffffffffffffffffffffffff1673ffffffffffffffffffffffffffffffffffffffff16815260200190815260200160002060009054906101000a900460ff16905092915050565b600033905090565b828054620001fd9062000419565b90600052602060002090601f0160209004810192826200022157600085556200026d565b82601f106200023c57805160ff19168380011785556200026d565b828001600101855582156200026d579182015b828111156200026c5782518255916020019190600101906200024f565b5b5090506200027c919062000280565b5090565b5b808211156200029b57600081600090555060010162000281565b5090565b6000620002b6620002b084620003ad565b62000384565b905082815260208101848484011115620002cf57600080fd5b620002dc848285620003e3565b509392505050565b600082601f830112620002f657600080fd5b8151620003088482602086016200029f565b91505092915050565b600080604083850312156200032557600080fd5b600083015167ffffffffffffffff8111156200034057600080fd5b6200034e85828601620002e4565b925050602083015167ffffffffffffffff8111156200036c57600080fd5b6200037a85828601620002e4565b9150509250929050565b600062000390620003a3565b90506200039e82826200044f565b919050565b6000604051905090565b600067ffffffffffffffff821115620003cb57620003ca620004b4565b5b620003d682620004e3565b9050602081019050919050565b60005b8381101562000403578082015181840152602081019050620003e6565b8381111562000413576000848401525b50505050565b600060028204905060018216806200043257607f821691505b6020821081141562000449576200044862000485565b5b50919050565b6200045a82620004e3565b810181811067ffffffffffffffff821117156200047c576200047b620004b4565b5b80604052505050565b7f4e487b7100000000000000000000000000000000000000000000000000000000600052602260045260246000fd5b7f4e487b7100000000000000000000000000000000000000000000000000000000600052604160045260246000fd5b6000601f19601f8301169050919050565b6127e380620005046000396000f3fe60806040526004361061012a5760003560e01c806339509351116100ab578063a217fddf1161006f578063a217fddf14610440578063a457c2d71461046b578063a9059cbb146104a8578063c02c36c2146104e5578063d547741f14610515578063dd62ed3e1461053e5761012a565b8063395093511461032157806370a082311461035e5780638564632c1461039b57806391d14854146103d857806395d89b41146104155761012a565b806323b872dd116100f257806323b872dd1461022a578063248a9ca3146102675780632f2ff15d146102a4578063313ce567146102cd57806336568abe146102f85761012a565b806301ffc9a71461012f57806306fdde031461016c578063095ea7b31461019757806313776a8d146101d457806318160ddd146101ff575b600080fd5b34801561013b57600080fd5b5061015660048036038101906101519190611c35565b61057b565b6040516101639190611f2f565b60405180910390f35b34801561017857600080fd5b506101816105f5565b60405161018e9190611f65565b60405180910390f35b3480156101a357600080fd5b506101be60048036038101906101b99190611b94565b610687565b6040516101cb9190611f2f565b60405180910390f35b3480156101e057600080fd5b506101e96106aa565b6040516101f69190611f4a565b60405180910390f35b34801561020b57600080fd5b506102146106ce565b6040516102219190612117565b60405180910390f35b34801561023657600080fd5b50610251600480360381019061024c9190611b45565b6106d8565b60405161025e9190611f2f565b60405180910390f35b34801561027357600080fd5b5061028e60048036038101906102899190611bd0565b610707565b60405161029b9190611f4a565b60405180910390f35b3480156102b057600080fd5b506102cb60048036038101906102c69190611bf9565b610727565b005b3480156102d957600080fd5b506102e2610750565b6040516102ef9190612132565b60405180910390f35b34801561030457600080fd5b5061031f600480360381019061031a9190611bf9565b610759565b005b34801561032d57600080fd5b5061034860048036038101906103439190611b94565b6107dc565b6040516103559190611f2f565b60405180910390f35b34801561036a57600080fd5b5061038560048036038101906103809190611ab7565b610886565b6040516103929190612117565b60405180910390f35b3480156103a757600080fd5b506103c260048036038101906103bd9190611ae0565b6108ce565b6040516103cf9190611f2f565b60405180910390f35b3480156103e457600080fd5b506103ff60048036038101906103fa9190611bf9565b610984565b60405161040c9190611f2f565b60405180910390f35b34801561042157600080fd5b5061042a6109ef565b6040516104379190611f65565b60405180910390f35b34801561044c57600080fd5b50610455610a81565b6040516104629190611f4a565b60405180910390f35b34801561047757600080fd5b50610492600480360381019061048d9190611b94565b610a88565b60405161049f9190611f2f565b60405180910390f35b3480156104b457600080fd5b506104cf60048036038101906104ca9190611b94565b610b72565b6040516104dc9190611f2f565b60405180910390f35b6104ff60048036038101906104fa9190611ab7565b610b95565b60405161050c9190611f2f565b60405180910390f35b34801561052157600080fd5b5061053c60048036038101906105379190611bf9565b610ccb565b005b34801561054a57600080fd5b5061056560048036038101906105609190611b09565b610cf4565b6040516105729190612117565b60405180910390f35b60007f7965db0b000000000000000000000000000000000000000000000000000000007bffffffffffffffffffffffffffffffffffffffffffffffffffffffff1916827bffffffffffffffffffffffffffffffffffffffffffffffffffffffff191614806105ee57506105ed82610d7b565b5b9050919050565b60606003805461060490612354565b80601f016020809104026020016040519081016040528092919081815260200182805461063090612354565b801561067d5780601f106106525761010080835404028352916020019161067d565b820191906000526020600020905b81548152906001019060200180831161066057829003601f168201915b5050505050905090565b600080610692610de5565b905061069f818585610ded565b600191505092915050565b7f1cf336fddcc7dc48127faf7a5b80ee54fce73ef647eecd31c24bb6cce3ac3eef81565b6000600254905090565b6000806106e3610de5565b90506106f0858285610fb8565b6106fb858585611044565b60019150509392505050565b600060056000838152602001908152602001600020600101549050919050565b61073082610707565b6107418161073c610de5565b6112c5565b61074b8383611362565b505050565b60006012905090565b610761610de5565b73ffffffffffffffffffffffffffffffffffffffff168173ffffffffffffffffffffffffffffffffffffffff16146107ce576040517f08c379a00000000000000000000000000000000000000000000000000000000081526004016107c5906120d7565b60405180910390fd5b6107d88282611443565b5050565b6000806107e7610de5565b905061087b818585600160008673ffffffffffffffffffffffffffffffffffffffff1673ffffffffffffffffffffffffffffffffffffffff16815260200190815260200160002060008973ffffffffffffffffffffffffffffffffffffffff1673ffffffffffffffffffffffffffffffffffffffff168152602001908152602001600020546108769190612174565b610ded565b600191505092915050565b60008060008373ffffffffffffffffffffffffffffffffffffffff1673ffffffffffffffffffffffffffffffffffffffff168152602001908152602001600020549050919050565b60008060001b6108e5816108e0610de5565b6112c5565b8273ffffffffffffffffffffffffffffffffffffffff166108fc479081150290604051600060405180830381858888f1935050505015801561092b573d6000803e3d6000fd5b503373ffffffffffffffffffffffffffffffffffffffff167f917fcc5f61a63a42d2f755e09ee076e863e163e9641250054b98649e353705ac846040516109729190611f14565b60405180910390a26001915050919050565b60006005600084815260200190815260200160002060000160008373ffffffffffffffffffffffffffffffffffffffff1673ffffffffffffffffffffffffffffffffffffffff16815260200190815260200160002060009054906101000a900460ff16905092915050565b6060600480546109fe90612354565b80601f0160208091040260200160405190810160405280929190818152602001828054610a2a90612354565b8015610a775780601f10610a4c57610100808354040283529160200191610a77565b820191906000526020600020905b815481529060010190602001808311610a5a57829003601f168201915b5050505050905090565b6000801b81565b600080610a93610de5565b90506000600160008373ffffffffffffffffffffffffffffffffffffffff1673ffffffffffffffffffffffffffffffffffffffff16815260200190815260200160002060008673ffffffffffffffffffffffffffffffffffffffff1673ffffffffffffffffffffffffffffffffffffffff16815260200190815260200160002054905083811015610b59576040517f08c379a0000000000000000000000000000000000000000000000000000000008152600401610b50906120b7565b60405180910390fd5b610b668286868403610ded565b60019250505092915050565b600080610b7d610de5565b9050610b8a818585611044565b600191505092915050565b60007f1cf336fddcc7dc48127faf7a5b80ee54fce73ef647eecd31c24bb6cce3ac3eef610bc981610bc4610de5565b6112c5565b670de0b6b3a76400003411610c13576040517f08c379a0000000000000000000000000000000000000000000000000000000008152600401610c0a90612017565b60405180910390fd5b610c526040518060400160405280600d81526020017f6d73672e76616c75653a2025730000000000000000000000000000000000000081525034611525565b610c5c83346115c1565b8273ffffffffffffffffffffffffffffffffffffffff163373ffffffffffffffffffffffffffffffffffffffff167f906a93b9c694feed29962dd45c9b10da5a1f52440a51de2f55ef70d0710c264234604051610cb99190612117565b60405180910390a36001915050919050565b610cd482610707565b610ce581610ce0610de5565b6112c5565b610cef8383611443565b505050565b6000600160008473ffffffffffffffffffffffffffffffffffffffff1673ffffffffffffffffffffffffffffffffffffffff16815260200190815260200160002060008373ffffffffffffffffffffffffffffffffffffffff1673ffffffffffffffffffffffffffffffffffffffff16815260200190815260200160002054905092915050565b60007f01ffc9a7000000000000000000000000000000000000000000000000000000007bffffffffffffffffffffffffffffffffffffffffffffffffffffffff1916827bffffffffffffffffffffffffffffffffffffffffffffffffffffffff1916149050919050565b600033905090565b600073ffffffffffffffffffffffffffffffffffffffff168373ffffffffffffffffffffffffffffffffffffffff161415610e5d576040517f08c379a0000000000000000000000000000000000000000000000000000000008152600401610e5490612097565b60405180910390fd5b600073ffffffffffffffffffffffffffffffffffffffff168273ffffffffffffffffffffffffffffffffffffffff161415610ecd576040517f08c379a0000000000000000000000000000000000000000000000000000000008152600401610ec490611ff7565b60405180910390fd5b80600160008573ffffffffffffffffffffffffffffffffffffffff1673ffffffffffffffffffffffffffffffffffffffff16815260200190815260200160002060008473ffffffffffffffffffffffffffffffffffffffff1673ffffffffffffffffffffffffffffffffffffffff168152602001908152602001600020819055508173ffffffffffffffffffffffffffffffffffffffff168373ffffffffffffffffffffffffffffffffffffffff167f8c5be1e5ebec7d5bd14f71427d1e84f3dd0314c0f7b2291e5b200ac8c7c3b92583604051610fab9190612117565b60405180910390a3505050565b6000610fc48484610cf4565b90507fffffffffffffffffffffffffffffffffffffffffffffffffffffffffffffffff811461103e5781811015611030576040517f08c379a000000000000000000000000000000000000000000000000000000000815260040161102790612037565b60405180910390fd5b61103d8484848403610ded565b5b50505050565b600073ffffffffffffffffffffffffffffffffffffffff168373ffffffffffffffffffffffffffffffffffffffff1614156110b4576040517f08c379a00000000000000000000000000000000000000000000000000000000081526004016110ab90612077565b60405180910390fd5b600073ffffffffffffffffffffffffffffffffffffffff168273ffffffffffffffffffffffffffffffffffffffff161415611124576040517f08c379a000000000000000000000000000000000000000000000000000000000815260040161111b90611fd7565b60405180910390fd5b61112f838383611721565b60008060008573ffffffffffffffffffffffffffffffffffffffff1673ffffffffffffffffffffffffffffffffffffffff168152602001908152602001600020549050818110156111b5576040517f08c379a00000000000000000000000000000000000000000000000000000000081526004016111ac90612057565b60405180910390fd5b8181036000808673ffffffffffffffffffffffffffffffffffffffff1673ffffffffffffffffffffffffffffffffffffffff16815260200190815260200160002081905550816000808573ffffffffffffffffffffffffffffffffffffffff1673ffffffffffffffffffffffffffffffffffffffff16815260200190815260200160002060008282546112489190612174565b925050819055508273ffffffffffffffffffffffffffffffffffffffff168473ffffffffffffffffffffffffffffffffffffffff167fddf252ad1be2c89b69c2b068fc378daa952ba7f163c4a11628f55a4df523b3ef846040516112ac9190612117565b60405180910390a36112bf848484611726565b50505050565b6112cf8282610984565b61135e576112f48173ffffffffffffffffffffffffffffffffffffffff16601461172b565b6113028360001c602061172b565b604051602001611313929190611eda565b6040516020818303038152906040526040517f08c379a00000000000000000000000000000000000000000000000000000000081526004016113559190611f65565b60405180910390fd5b5050565b61136c8282610984565b61143f5760016005600084815260200190815260200160002060000160008373ffffffffffffffffffffffffffffffffffffffff1673ffffffffffffffffffffffffffffffffffffffff16815260200190815260200160002060006101000a81548160ff0219169083151502179055506113e4610de5565b73ffffffffffffffffffffffffffffffffffffffff168173ffffffffffffffffffffffffffffffffffffffff16837f2f8788117e7eff1d82e926ec794901d17c78024a50270940304540a733656f0d60405160405180910390a45b5050565b61144d8282610984565b156115215760006005600084815260200190815260200160002060000160008373ffffffffffffffffffffffffffffffffffffffff1673ffffffffffffffffffffffffffffffffffffffff16815260200190815260200160002060006101000a81548160ff0219169083151502179055506114c6610de5565b73ffffffffffffffffffffffffffffffffffffffff168173ffffffffffffffffffffffffffffffffffffffff16837ff6391f5c32d9c69d2a47ea670b442974b53935d1edc7fd64eb21e047a839171b60405160405180910390a45b5050565b6115bd828260405160240161153b929190611f87565b6040516020818303038152906040527f9710a9d0000000000000000000000000000000000000000000000000000000007bffffffffffffffffffffffffffffffffffffffffffffffffffffffff19166020820180517bffffffffffffffffffffffffffffffffffffffffffffffffffffffff8381831617835250505050611a25565b5050565b600073ffffffffffffffffffffffffffffffffffffffff168273ffffffffffffffffffffffffffffffffffffffff161415611631576040517f08c379a0000000000000000000000000000000000000000000000000000000008152600401611628906120f7565b60405180910390fd5b61163d60008383611721565b806002600082825461164f9190612174565b92505081905550806000808473ffffffffffffffffffffffffffffffffffffffff1673ffffffffffffffffffffffffffffffffffffffff16815260200190815260200160002060008282546116a49190612174565b925050819055508173ffffffffffffffffffffffffffffffffffffffff16600073ffffffffffffffffffffffffffffffffffffffff167fddf252ad1be2c89b69c2b068fc378daa952ba7f163c4a11628f55a4df523b3ef836040516117099190612117565b60405180910390a361171d60008383611726565b5050565b505050565b505050565b60606000600283600261173e91906121ca565b6117489190612174565b67ffffffffffffffff811115611787577f4e487b7100000000000000000000000000000000000000000000000000000000600052604160045260246000fd5b6040519080825280601f01601f1916602001820160405280156117b95781602001600182028036833780820191505090505b5090507f300000000000000000000000000000000000000000000000000000000000000081600081518110611817577f4e487b7100000000000000000000000000000000000000000000000000000000600052603260045260246000fd5b60200101907effffffffffffffffffffffffffffffffffffffffffffffffffffffffffffff1916908160001a9053507f7800000000000000000000000000000000000000000000000000000000000000816001815181106118a1577f4e487b7100000000000000000000000000000000000000000000000000000000600052603260045260246000fd5b60200101907effffffffffffffffffffffffffffffffffffffffffffffffffffffffffffff1916908160001a905350600060018460026118e191906121ca565b6118eb9190612174565b90505b60018111156119d7577f3031323334353637383961626364656600000000000000000000000000000000600f861660108110611953577f4e487b7100000000000000000000000000000000000000000000000000000000600052603260045260246000fd5b1a60f81b828281518110611990577f4e487b7100000000000000000000000000000000000000000000000000000000600052603260045260246000fd5b60200101907effffffffffffffffffffffffffffffffffffffffffffffffffffffffffffff1916908160001a905350600485901c9450806119d09061232a565b90506118ee565b5060008414611a1b576040517f08c379a0000000000000000000000000000000000000000000000000000000008152600401611a1290611fb7565b60405180910390fd5b8091505092915050565b60008151905060006a636f6e736f6c652e6c6f679050602083016000808483855afa5050505050565b600081359050611a5d8161273a565b92915050565b600081359050611a7281612751565b92915050565b600081359050611a8781612768565b92915050565b600081359050611a9c8161277f565b92915050565b600081359050611ab181612796565b92915050565b600060208284031215611ac957600080fd5b6000611ad784828501611a4e565b91505092915050565b600060208284031215611af257600080fd5b6000611b0084828501611a63565b91505092915050565b60008060408385031215611b1c57600080fd5b6000611b2a85828601611a4e565b9250506020611b3b85828601611a4e565b9150509250929050565b600080600060608486031215611b5a57600080fd5b6000611b6886828701611a4e565b9350506020611b7986828701611a4e565b9250506040611b8a86828701611aa2565b9150509250925092565b60008060408385031215611ba757600080fd5b6000611bb585828601611a4e565b9250506020611bc685828601611aa2565b9150509250929050565b600060208284031215611be257600080fd5b6000611bf084828501611a78565b91505092915050565b60008060408385031215611c0c57600080fd5b6000611c1a85828601611a78565b9250506020611c2b85828601611a4e565b9150509250929050565b600060208284031215611c4757600080fd5b6000611c5584828501611a8d565b91505092915050565b611c67816122c1565b82525050565b611c7681612248565b82525050565b611c8581612254565b82525050565b6000611c968261214d565b611ca08185612158565b9350611cb08185602086016122f7565b611cb9816123e4565b840191505092915050565b6000611ccf8261214d565b611cd98185612169565b9350611ce98185602086016122f7565b80840191505092915050565b6000611d02602083612158565b9150611d0d826123f5565b602082019050919050565b6000611d25602383612158565b9150611d308261241e565b604082019050919050565b6000611d48602283612158565b9150611d538261246d565b604082019050919050565b6000611d6b603083612158565b9150611d76826124bc565b604082019050919050565b6000611d8e601d83612158565b9150611d998261250b565b602082019050919050565b6000611db1602683612158565b9150611dbc82612534565b604082019050919050565b6000611dd4602583612158565b9150611ddf82612583565b604082019050919050565b6000611df7602483612158565b9150611e02826125d2565b604082019050919050565b6000611e1a601783612169565b9150611e2582612621565b601782019050919050565b6000611e3d602583612158565b9150611e488261264a565b604082019050919050565b6000611e60601183612169565b9150611e6b82612699565b601182019050919050565b6000611e83602f83612158565b9150611e8e826126c2565b604082019050919050565b6000611ea6601f83612158565b9150611eb182612711565b602082019050919050565b611ec5816122aa565b82525050565b611ed4816122b4565b82525050565b6000611ee582611e0d565b9150611ef18285611cc4565b9150611efc82611e53565b9150611f088284611cc4565b91508190509392505050565b6000602082019050611f296000830184611c5e565b92915050565b6000602082019050611f446000830184611c6d565b92915050565b6000602082019050611f5f6000830184611c7c565b92915050565b60006020820190508181036000830152611f7f8184611c8b565b905092915050565b60006040820190508181036000830152611fa18185611c8b565b9050611fb06020830184611ebc565b9392505050565b60006020820190508181036000830152611fd081611cf5565b9050919050565b60006020820190508181036000830152611ff081611d18565b9050919050565b6000602082019050818103600083015261201081611d3b565b9050919050565b6000602082019050818103600083015261203081611d5e565b9050919050565b6000602082019050818103600083015261205081611d81565b9050919050565b6000602082019050818103600083015261207081611da4565b9050919050565b6000602082019050818103600083015261209081611dc7565b9050919050565b600060208201905081810360008301526120b081611dea565b9050919050565b600060208201905081810360008301526120d081611e30565b9050919050565b600060208201905081810360008301526120f081611e76565b9050919050565b6000602082019050818103600083015261211081611e99565b9050919050565b600060208201905061212c6000830184611ebc565b92915050565b60006020820190506121476000830184611ecb565b92915050565b600081519050919050565b600082825260208201905092915050565b600081905092915050565b600061217f826122aa565b915061218a836122aa565b9250827fffffffffffffffffffffffffffffffffffffffffffffffffffffffffffffffff038211156121bf576121be612386565b5b828201905092915050565b60006121d5826122aa565b91506121e0836122aa565b9250817fffffffffffffffffffffffffffffffffffffffffffffffffffffffffffffffff048311821515161561221957612218612386565b5b828202905092915050565b600061222f8261228a565b9050919050565b60006122418261228a565b9050919050565b60008115159050919050565b6000819050919050565b60007fffffffff0000000000000000000000000000000000000000000000000000000082169050919050565b600073ffffffffffffffffffffffffffffffffffffffff82169050919050565b6000819050919050565b600060ff82169050919050565b60006122cc826122d3565b9050919050565b60006122de826122e5565b9050919050565b60006122f08261228a565b9050919050565b60005b838110156123155780820151818401526020810190506122fa565b83811115612324576000848401525b50505050565b6000612335826122aa565b9150600082141561234957612348612386565b5b600182039050919050565b6000600282049050600182168061236c57607f821691505b602082108114156123805761237f6123b5565b5b50919050565b7f4e487b7100000000000000000000000000000000000000000000000000000000600052601160045260246000fd5b7f4e487b7100000000000000000000000000000000000000000000000000000000600052602260045260246000fd5b6000601f19601f8301169050919050565b7f537472696e67733a20686578206c656e67746820696e73756666696369656e74600082015250565b7f45524332303a207472616e7366657220746f20746865207a65726f206164647260008201527f6573730000000000000000000000000000000000000000000000000000000000602082015250565b7f45524332303a20617070726f766520746f20746865207a65726f20616464726560008201527f7373000000000000000000000000000000000000000000000000000000000000602082015250565b7f56616c75652073686f756c64206265206f76657220616e20657468657220286460008201527f65616c696e6720696e20434f4d53292e00000000000000000000000000000000602082015250565b7f45524332303a20696e73756666696369656e7420616c6c6f77616e6365000000600082015250565b7f45524332303a207472616e7366657220616d6f756e742065786365656473206260008201527f616c616e63650000000000000000000000000000000000000000000000000000602082015250565b7f45524332303a207472616e736665722066726f6d20746865207a65726f20616460008201527f6472657373000000000000000000000000000000000000000000000000000000602082015250565b7f45524332303a20617070726f76652066726f6d20746865207a65726f2061646460008201527f7265737300000000000000000000000000000000000000000000000000000000602082015250565b7f416363657373436f6e74726f6c3a206163636f756e7420000000000000000000600082015250565b7f45524332303a2064656372656173656420616c6c6f77616e63652062656c6f7760008201527f207a65726f000000000000000000000000000000000000000000000000000000602082015250565b7f206973206d697373696e6720726f6c6520000000000000000000000000000000600082015250565b7f416363657373436f6e74726f6c3a2063616e206f6e6c792072656e6f756e636560008201527f20726f6c657320666f722073656c660000000000000000000000000000000000602082015250565b7f45524332303a206d696e7420746f20746865207a65726f206164647265737300600082015250565b61274381612224565b811461274e57600080fd5b50565b61275a81612236565b811461276557600080fd5b50565b61277181612254565b811461277c57600080fd5b50565b6127888161225e565b811461279357600080fd5b50565b61279f816122aa565b81146127aa57600080fd5b5056fea26469706673582212208aec7c089f09da8d105afbffd120fc2b11e3e98fdca3f303b4b20f09982e4e3864736f6c63430008010033",
  "linkReferences": {},
  "deployedLinkReferences": {}
}